S01C000030332D313630322D6E6F6E2D626C6F636B696E672E73726563C1
S11300000C9434000C9451000C9451000C94510045
S11300100C9451000C9451000C9451000C94510018
S11300200C9451000C9451000C9451000C94510008
S11300300C9451000C9451000C9423010C94510025
S11300400C9451000C9451000C9451000C945100E8
S11300500C9451000C9451000C9451000C945100D8
S11300600C9451000C94510011241FBECFEFD8E022
S1130070DEBFCDBF11E0A0E0B1E0E2ECF2E002C0EF
S113008005900D92A234B107D9F721E0A2E4B1E0C2
S113009001C01D92A534B207E1F70E944B010C94F4
S11300A05F010C9400008AB181608AB98AB18260D0
S11300B08AB98AB184608AB98AB188608AB98AB1F6
S11300C080618AB98AB180628AB98AB180648AB946
S11300D08AB180688AB987B1816087B987B1826043
S11300E087B984B1886084B984B1846084B984B1E7
S11300F08D7F84B985B1826085B984B18F7E84B9DE
S113010085B1806185B9089588B1826088B98FEF1F
S113011091E10197F1F700C0000088B18D7F88B9A3
S1130120089598B19E7F98B98BB90E948400089570
S11301302FEF8FE995E0215080409040E1F700C017
S1130140000080E30E9491008FEF99E50197F1F799
S113015000C0000080E30E9491008CEC91E00197C4
S1130160F1F700C0000080E30E9491008CEC91E064
S11301700197F1F700C0000088E30E94910084EF2A
S113018090E00197F1F78CE00E94910084EF90E0F9
S11301900197F1F781E00E9491008FEF95E30197B9
S11301A0F1F700C0000086E00E94910092E32BEF7B
S11301B082E0915020408040E1F700C000C00895E3
S11301C0909343018093420108958091420190915C
S11301D04301892BB9F188B18D7F88B9E09142013F
S11301E0F09143018081811105C010924301109266
S11301F042010895833231F488B18E7F88B981E059
S11302008BB914C08D3031F488B18E7F88B980E801
S11302108BB90CC08A3031F488B18E7F88B980ECF8
S11302208BB904C098B1916098B98BB988B18260D8
S113023088B98091420190914301019690934301C2
S11302408093420108951F920F920FB60F921124CA
S11302508F9380914401882329F080914401815037
S1130260809344018F910F900FBE0F901F901895AB
S11302708AEF80934401089582E084BD93E095BDA4
S11302809CE797BD80936E0008958AEF80934401A4
S11302900E94E50008950E9453000E9498000E9465
S11302A038010E943C01789480E091E00E94E000D3
S11302B0809144018111FCCF0E944501F9CFF8944B
S10502C0FFCF6A
S11302C248656C6C6F20576F726C6421230A20534B
S11302D2696D706C65207465787421292929230D50
S11302E254686520656E642E2E2E20202020202046
S11302F20A2D2D2D2D2D2D2D2D2D2D2D2D2D2D2D4B
S10503022A00CB
S9030000FC
